{
	"_format": "hh-sol-artifact-1",
	"contractName": "MyEpicNFT",
	"sourceName": "contracts/MyEpicNFT.sol",
	"abi": [
		{
			"inputs": [],
			"stateMutability": "nonpayable",
			"type": "constructor"
		},
		{
			"anonymous": false,
			"inputs": [
				{
					"indexed": true,
					"internalType": "address",
					"name": "owner",
					"type": "address"
				},
				{
					"indexed": true,
					"internalType": "address",
					"name": "approved",
					"type": "address"
				},
				{
					"indexed": true,
					"internalType": "uint256",
					"name": "tokenId",
					"type": "uint256"
				}
			],
			"name": "Approval",
			"type": "event"
		},
		{
			"anonymous": false,
			"inputs": [
				{
					"indexed": true,
					"internalType": "address",
					"name": "owner",
					"type": "address"
				},
				{
					"indexed": true,
					"internalType": "address",
					"name": "operator",
					"type": "address"
				},
				{
					"indexed": false,
					"internalType": "bool",
					"name": "approved",
					"type": "bool"
				}
			],
			"name": "ApprovalForAll",
			"type": "event"
		},
		{
			"anonymous": false,
			"inputs": [
				{
					"indexed": false,
					"internalType": "address",
					"name": "sender",
					"type": "address"
				},
				{
					"indexed": false,
					"internalType": "uint256",
					"name": "tokenId",
					"type": "uint256"
				}
			],
			"name": "NewEpicNFTMinted",
			"type": "event"
		},
		{
			"anonymous": false,
			"inputs": [
				{
					"indexed": true,
					"internalType": "address",
					"name": "from",
					"type": "address"
				},
				{
					"indexed": true,
					"internalType": "address",
					"name": "to",
					"type": "address"
				},
				{
					"indexed": true,
					"internalType": "uint256",
					"name": "tokenId",
					"type": "uint256"
				}
			],
			"name": "Transfer",
			"type": "event"
		},
		{
			"inputs": [
				{
					"internalType": "address",
					"name": "to",
					"type": "address"
				},
				{
					"internalType": "uint256",
					"name": "tokenId",
					"type": "uint256"
				}
			],
			"name": "approve",
			"outputs": [],
			"stateMutability": "nonpayable",
			"type": "function"
		},
		{
			"inputs": [
				{
					"internalType": "address",
					"name": "owner",
					"type": "address"
				}
			],
			"name": "balanceOf",
			"outputs": [
				{
					"internalType": "uint256",
					"name": "",
					"type": "uint256"
				}
			],
			"stateMutability": "view",
			"type": "function"
		},
		{
			"inputs": [
				{
					"internalType": "uint256",
					"name": "tokenId",
					"type": "uint256"
				}
			],
			"name": "getApproved",
			"outputs": [
				{
					"internalType": "address",
					"name": "",
					"type": "address"
				}
			],
			"stateMutability": "view",
			"type": "function"
		},
		{
			"inputs": [
				{
					"internalType": "address",
					"name": "owner",
					"type": "address"
				},
				{
					"internalType": "address",
					"name": "operator",
					"type": "address"
				}
			],
			"name": "isApprovedForAll",
			"outputs": [
				{
					"internalType": "bool",
					"name": "",
					"type": "bool"
				}
			],
			"stateMutability": "view",
			"type": "function"
		},
		{
			"inputs": [],
			"name": "makeAnEpicNFT",
			"outputs": [],
			"stateMutability": "nonpayable",
			"type": "function"
		},
		{
			"inputs": [],
			"name": "name",
			"outputs": [
				{
					"internalType": "string",
					"name": "",
					"type": "string"
				}
			],
			"stateMutability": "view",
			"type": "function"
		},
		{
			"inputs": [
				{
					"internalType": "uint256",
					"name": "tokenId",
					"type": "uint256"
				}
			],
			"name": "ownerOf",
			"outputs": [
				{
					"internalType": "address",
					"name": "",
					"type": "address"
				}
			],
			"stateMutability": "view",
			"type": "function"
		},
		{
			"inputs": [
				{
					"internalType": "uint256",
					"name": "tokenId",
					"type": "uint256"
				}
			],
			"name": "pickLoveLanguageWords",
			"outputs": [
				{
					"internalType": "string[2]",
					"name": "",
					"type": "string[2]"
				}
			],
			"stateMutability": "view",
			"type": "function"
		},
		{
			"inputs": [
				{
					"internalType": "address",
					"name": "from",
					"type": "address"
				},
				{
					"internalType": "address",
					"name": "to",
					"type": "address"
				},
				{
					"internalType": "uint256",
					"name": "tokenId",
					"type": "uint256"
				}
			],
			"name": "safeTransferFrom",
			"outputs": [],
			"stateMutability": "nonpayable",
			"type": "function"
		},
		{
			"inputs": [
				{
					"internalType": "address",
					"name": "from",
					"type": "address"
				},
				{
					"internalType": "address",
					"name": "to",
					"type": "address"
				},
				{
					"internalType": "uint256",
					"name": "tokenId",
					"type": "uint256"
				},
				{
					"internalType": "bytes",
					"name": "_data",
					"type": "bytes"
				}
			],
			"name": "safeTransferFrom",
			"outputs": [],
			"stateMutability": "nonpayable",
			"type": "function"
		},
		{
			"inputs": [
				{
					"internalType": "address",
					"name": "operator",
					"type": "address"
				},
				{
					"internalType": "bool",
					"name": "approved",
					"type": "bool"
				}
			],
			"name": "setApprovalForAll",
			"outputs": [],
			"stateMutability": "nonpayable",
			"type": "function"
		},
		{
			"inputs": [
				{
					"internalType": "bytes4",
					"name": "interfaceId",
					"type": "bytes4"
				}
			],
			"name": "supportsInterface",
			"outputs": [
				{
					"internalType": "bool",
					"name": "",
					"type": "bool"
				}
			],
			"stateMutability": "view",
			"type": "function"
		},
		{
			"inputs": [],
			"name": "symbol",
			"outputs": [
				{
					"internalType": "string",
					"name": "",
					"type": "string"
				}
			],
			"stateMutability": "view",
			"type": "function"
		},
		{
			"inputs": [
				{
					"internalType": "uint256",
					"name": "tokenId",
					"type": "uint256"
				}
			],
			"name": "tokenURI",
			"outputs": [
				{
					"internalType": "string",
					"name": "",
					"type": "string"
				}
			],
			"stateMutability": "view",
			"type": "function"
		},
		{
			"inputs": [
				{
					"internalType": "address",
					"name": "from",
					"type": "address"
				},
				{
					"internalType": "address",
					"name": "to",
					"type": "address"
				},
				{
					"internalType": "uint256",
					"name": "tokenId",
					"type": "uint256"
				}
			],
			"name": "transferFrom",
			"outputs": [],
			"stateMutability": "nonpayable",
			"type": "function"
		}
	],
	"bytecode": "0x60806040526040518061066001604052806040518060400160405280600681526020017f6c6965666465000000000000000000000000000000000000000000000000000081525081526020016040518060400160405280600781526020017f646173687572690000000000000000000000000000000000000000000000000081525081526020016040518060400160405280600581526020017f6d6169746500000000000000000000000000000000000000000000000000000081525081526020016040518060400160405280600581526020017f707961617200000000000000000000000000000000000000000000000000000081525081526020016040518060400160405280600681526020017f6c6a75626176000000000000000000000000000000000000000000000000000081525081526020016040518060400160405280600881526020017f6b6172616e74657a00000000000000000000000000000000000000000000000081525081526020016040518060400160405280600481526020017f616d6f720000000000000000000000000000000000000000000000000000000081525081526020016040518060400160405280600581526020017f6775676d6100000000000000000000000000000000000000000000000000000081525081526020016040518060400160405280600681526020017f677569617961000000000000000000000000000000000000000000000000000081525081526020016040518060400160405280600981526020017f616461676579756469000000000000000000000000000000000000000000000081525081526020016040518060400160405280600881526020017f6368696b6f6e646900000000000000000000000000000000000000000000000081525081526020016040518060400160405280600581526020017f616d6f726500000000000000000000000000000000000000000000000000000081525081526020016040518060400160405280600681526020017f6c6a75626176000000000000000000000000000000000000000000000000000081525081526020016040518060400160405280600781526020017f6d696c6f7661740000000000000000000000000000000000000000000000000081525081526020016040518060400160405280600681526020017f656c736b6572000000000000000000000000000000000000000000000000000081525081526020016040518060400160405280600681526020017f6c6965666465000000000000000000000000000000000000000000000000000081525081526020016040518060400160405280600881526020017f61726d617374757300000000000000000000000000000000000000000000000081525081526020016040518060400160405280600881526020017f7061672d6962696700000000000000000000000000000000000000000000000081525081526020016040518060400160405280600781526020017f72616b6b6175730000000000000000000000000000000000000000000000000081525081526020016040518060400160405280600581526020017f616d6f757200000000000000000000000000000000000000000000000000000081525081526020016040518060400160405280600681526020017f6c6561666465000000000000000000000000000000000000000000000000000081525081526020016040518060400160405280600481526020017f616d6f720000000000000000000000000000000000000000000000000000000081525081526020016040518060400160405280600581526020017f6c6965626500000000000000000000000000000000000000000000000000000081525081526020016040518060400160405280600581526020017f616761706500000000000000000000000000000000000000000000000000000081525081526020016040518060400160405280600581526020017f616c6f686100000000000000000000000000000000000000000000000000000081525081526020016040518060400160405280600481526020017f707961720000000000000000000000000000000000000000000000000000000081525081526020016040518060400160405280600881526020017f737a6572656c656d00000000000000000000000000000000000000000000000081525081526020016040518060400160405280600381526020017f617374000000000000000000000000000000000000000000000000000000000081525081526020016040518060400160405280600381526020017f677261000000000000000000000000000000000000000000000000000000000081525081526020016040518060400160405280600581526020017f616d6f726500000000000000000000000000000000000000000000000000000081525081526020016040518060400160405280600381526020017f6b6f69000000000000000000000000000000000000000000000000000000000081525081526020016040518060400160405280600981526020017f6d696c657374696261000000000000000000000000000000000000000000000081525081526020016040518060400160405280600581526020017f6d65696c6500000000000000000000000000000000000000000000000000000081525081526020016040518060400160405280600581526020017f6c6569667400000000000000000000000000000000000000000000000000000081525081526020016040518060400160405280600581526020017f63696e746100000000000000000000000000000000000000000000000000000081525081526020016040518060400160405280600781526020017f696d68616262610000000000000000000000000000000000000000000000000081525081526020016040518060400160405280600581526020017f6d65656e6100000000000000000000000000000000000000000000000000000081525081526020016040518060400160405280600681526020017f6d696c6f7363000000000000000000000000000000000000000000000000000081525081526020016040518060400160405280600481526020017f616d6f720000000000000000000000000000000000000000000000000000000081525081526020016040518060400160405280600881526020017f647261676f73746500000000000000000000000000000000000000000000000081525081526020016040518060400160405280600681526020017f6c7975626f76000000000000000000000000000000000000000000000000000081525081526020016040518060400160405280600681526020017f6768616f696c000000000000000000000000000000000000000000000000000081525081526020016040518060400160405280600681526020017f6c6a75626176000000000000000000000000000000000000000000000000000081525081526020016040518060400160405280600781526020017f6d696c6f7661740000000000000000000000000000000000000000000000000081525081526020016040518060400160405280600881526020017f6c6a7562657a656e00000000000000000000000000000000000000000000000081525081526020016040518060400160405280600481526020017f616d6f720000000000000000000000000000000000000000000000000000000081525081526020016040518060400160405280600581526020017f70656e646f00000000000000000000000000000000000000000000000000000081525081526020016040518060400160405280600681526020017f6b61726c656b000000000000000000000000000000000000000000000000000081525081526020016040518060400160405280600481526020017f616e70750000000000000000000000000000000000000000000000000000000081525081526020016040518060400160405280600681526020017f636172696164000000000000000000000000000000000000000000000000000081525081526020016040518060400160405280600781526020017f757468616e646f00000000000000000000000000000000000000000000000000815250815250600890603362000be192919062001a9e565b506040518061066001604052806040518060400160405280600981526020017f416672696b61616e73000000000000000000000000000000000000000000000081525081526020016040518060400160405280600881526020017f416c62616e69616e00000000000000000000000000000000000000000000000081525081526020016040518060400160405280600681526020017f426173717565000000000000000000000000000000000000000000000000000081525081526020016040518060400160405280600881526020017f42686f6a7075726900000000000000000000000000000000000000000000000081525081526020016040518060400160405280600781526020017f426f736e69616e0000000000000000000000000000000000000000000000000081525081526020016040518060400160405280600681526020017f427265746f6e000000000000000000000000000000000000000000000000000081525081526020016040518060400160405280600781526020017f436174616c616e0000000000000000000000000000000000000000000000000081525081526020016040518060400160405280600781526020017f43656275616e6f0000000000000000000000000000000000000000000000000081525081526020016040518060400160405280600881526020017f4368616d6f72726f00000000000000000000000000000000000000000000000081525081526020016040518060400160405280600881526020017f436865726f6b656500000000000000000000000000000000000000000000000081525081526020016040518060400160405280600881526020017f436869636865776100000000000000000000000000000000000000000000000081525081526020016040518060400160405280600881526020017f436f72736963616e00000000000000000000000000000000000000000000000081525081526020016040518060400160405280600881526020017f43726f617469616e00000000000000000000000000000000000000000000000081525081526020016040518060400160405280600581526020017f437a65636800000000000000000000000000000000000000000000000000000081525081526020016040518060400160405280600681526020017f44616e697368000000000000000000000000000000000000000000000000000081525081526020016040518060400160405280600581526020017f447574636800000000000000000000000000000000000000000000000000000081525081526020016040518060400160405280600881526020017f4573746f6e69616e00000000000000000000000000000000000000000000000081525081526020016040518060400160405280600881526020017f46696c6970696e6f00000000000000000000000000000000000000000000000081525081526020016040518060400160405280600781526020017f46696e6e6973680000000000000000000000000000000000000000000000000081525081526020016040518060400160405280600681526020017f4672656e6368000000000000000000000000000000000000000000000000000081525081526020016040518060400160405280600781526020017f4672697369616e0000000000000000000000000000000000000000000000000081525081526020016040518060400160405280600881526020017f47616c696369616e00000000000000000000000000000000000000000000000081525081526020016040518060400160405280600681526020017f4765726d616e000000000000000000000000000000000000000000000000000081525081526020016040518060400160405280600581526020017f477265656b00000000000000000000000000000000000000000000000000000081525081526020016040518060400160405280600881526020017f486177616969616e00000000000000000000000000000000000000000000000081525081526020016040518060400160405280600581526020017f48696e646900000000000000000000000000000000000000000000000000000081525081526020016040518060400160405280600981526020017f48756e67617269616e000000000000000000000000000000000000000000000081525081526020016040518060400160405280600981526020017f4963656c616e646963000000000000000000000000000000000000000000000081525081526020016040518060400160405280600581526020017f497269736800000000000000000000000000000000000000000000000000000081525081526020016040518060400160405280600781526020017f4974616c69616e0000000000000000000000000000000000000000000000000081525081526020016040518060400160405280600881526020017f4a6170616e65736500000000000000000000000000000000000000000000000081525081526020016040518060400160405280600781526020017f4c61747669616e0000000000000000000000000000000000000000000000000081525081526020016040518060400160405280600a81526020017f4c69746875616e69616e0000000000000000000000000000000000000000000081525081526020016040518060400160405280600d81526020017f4c7578656d626f7572676973680000000000000000000000000000000000000081525081526020016040518060400160405280600581526020017f4d616c617900000000000000000000000000000000000000000000000000000081525081526020016040518060400160405280600781526020017f4d616c746573650000000000000000000000000000000000000000000000000081525081526020016040518060400160405280600681526020017f50617368746f000000000000000000000000000000000000000000000000000081525081526020016040518060400160405280600681526020017f506f6c697368000000000000000000000000000000000000000000000000000081525081526020016040518060400160405280600a81526020017f506f72747567756573650000000000000000000000000000000000000000000081525081526020016040518060400160405280600881526020017f526f6d616e69616e00000000000000000000000000000000000000000000000081525081526020016040518060400160405280600781526020017f5275737369616e0000000000000000000000000000000000000000000000000081525081526020016040518060400160405280600b81526020017f53636f74734761656c696300000000000000000000000000000000000000000081525081526020016040518060400160405280600781526020017f5365726269616e0000000000000000000000000000000000000000000000000081525081526020016040518060400160405280600681526020017f536c6f76616b000000000000000000000000000000000000000000000000000081525081526020016040518060400160405280600981526020017f536c6f76656e69616e000000000000000000000000000000000000000000000081525081526020016040518060400160405280600781526020017f5370616e6973680000000000000000000000000000000000000000000000000081525081526020016040518060400160405280600781526020017f53776168696c690000000000000000000000000000000000000000000000000081525081526020016040518060400160405280600781526020017f537765646973680000000000000000000000000000000000000000000000000081525081526020016040518060400160405280600581526020017f54616d696c00000000000000000000000000000000000000000000000000000081525081526020016040518060400160405280600581526020017f57656c736800000000000000000000000000000000000000000000000000000081525081526020016040518060400160405280600481526020017f5a756c75000000000000000000000000000000000000000000000000000000008152508152506009906033620017bf92919062001a9e565b506040518060e0016040528060ac815260200162005d0960ac9139600a9080519060200190620017f192919062001b05565b5060405180608001604052806046815260200162005db560469139600b90805190602001906200182392919062001b05565b5060405180608001604052806046815260200162005cc360469139600c90805190602001906200185592919062001b05565b5060405180608001604052806047815260200162005dfb60479139600d90805190602001906200188792919062001b05565b50604051806101a0016040528061016e815260200162005e4261016e9139600e9080519060200190620018bc92919062001b05565b5060405180608001604052806059815260200162005c6a60599139600f9080519060200190620018ee92919062001b05565b50348015620018fc57600080fd5b506040518060400160405280600b81526020017f6c6f76656c616e674e46540000000000000000000000000000000000000000008152506040518060400160405280600881526020017f4c4f56454c414e4700000000000000000000000000000000000000000000000081525081600090805190602001906200198192919062001b05565b5080600190805190602001906200199a92919062001b05565b505050620019cc6040518060600160405280602e815260200162005fb0602e9139620019d260201b620014b41760201c565b62001d50565b62001a7281604051602401620019e9919062001c64565b6040516020818303038152906040527f41304fac000000000000000000000000000000000000000000000000000000007bffffffffffffffffffffffffffffffffffffffffffffffffffffffff19166020820180517bffffffffffffffffffffffffffffffffffffffffffffffffffffffff838183161783525050505062001a7560201b60201c565b50565b60008151905060006a636f6e736f6c652e6c6f679050602083016000808483855afa5050505050565b82805482825590600052602060002090810192821562001af2579160200282015b8281111562001af157825182908051906020019062001ae092919062001b05565b509160200191906001019062001abf565b5b50905062001b01919062001b96565b5090565b82805462001b139062001cda565b90600052602060002090601f01602090048101928262001b37576000855562001b83565b82601f1062001b5257805160ff191683800117855562001b83565b8280016001018555821562001b83579182015b8281111562001b8257825182559160200191906001019062001b65565b5b50905062001b92919062001bbe565b5090565b5b8082111562001bba576000818162001bb0919062001bdd565b5060010162001b97565b5090565b5b8082111562001bd957600081600090555060010162001bbf565b5090565b50805462001beb9062001cda565b6000825580601f1062001bff575062001c20565b601f01602090049060005260206000209081019062001c1f919062001bbe565b5b50565b600062001c308262001c88565b62001c3c818562001c93565b935062001c4e81856020860162001ca4565b62001c598162001d3f565b840191505092915050565b6000602082019050818103600083015262001c80818462001c23565b905092915050565b600081519050919050565b600082825260208201905092915050565b60005b8381101562001cc457808201518184015260208101905062001ca7565b8381111562001cd4576000848401525b50505050565b6000600282049050600182168062001cf357607f821691505b6020821081141562001d0a5762001d0962001d10565b5b50919050565b7f4e487b7100000000000000000000000000000000000000000000000000000000600052602260045260246000fd5b6000601f19601f8301169050919050565b613f0a8062001d606000396000f3fe608060405234801561001057600080fd5b50600436106100f55760003560e01c806370a0823111610097578063b88d4fde11610066578063b88d4fde14610296578063c87b56dd146102b2578063de9d132f146102e2578063e985e9c5146102ec576100f5565b806370a08231146101fc578063778be4421461022c57806395d89b411461025c578063a22cb4651461027a576100f5565b8063095ea7b3116100d3578063095ea7b31461017857806323b872dd1461019457806342842e0e146101b05780636352211e146101cc576100f5565b806301ffc9a7146100fa57806306fdde031461012a578063081812fc14610148575b600080fd5b610114600480360381019061010f91906129a2565b61031c565b60405161012191906136a0565b60405180910390f35b6101326103fe565b60405161013f91906136bb565b60405180910390f35b610162600480360381019061015d91906129f4565b610490565b60405161016f91906135ee565b60405180910390f35b610192600480360381019061018d9190612966565b610515565b005b6101ae60048036038101906101a99190612860565b61062d565b005b6101ca60048036038101906101c59190612860565b61068d565b005b6101e660048036038101906101e191906129f4565b6106ad565b6040516101f391906135ee565b60405180910390f35b610216600480360381019061021191906127fb565b61075f565b6040516102239190613982565b60405180910390f35b610246600480360381019061024191906129f4565b610817565b604051610253919061367e565b60405180910390f35b6102646109f4565b60405161027191906136bb565b60405180910390f35b610294600480360381019061028f919061292a565b610a86565b005b6102b060048036038101906102ab91906128af565b610c07565b005b6102cc60048036038101906102c791906129f4565b610c69565b6040516102d991906136bb565b60405180910390f35b6102ea610dbb565b005b61030660048036038101906103019190612824565b611420565b60405161031391906136a0565b60405180910390f35b60007f80ac58cd000000000000000000000000000000000000000000000000000000007bffffffffffffffffffffffffffffffffffffffffffffffffffffffff1916827bffffffffffffffffffffffffffffffffffffffffffffffffffffffff191614806103e757507f5b5e139f000000000000000000000000000000000000000000000000000000007bffffffffffffffffffffffffffffffffffffffffffffffffffffffff1916827bffffffffffffffffffffffffffffffffffffffffffffffffffffffff1916145b806103f757506103f68261154d565b5b9050919050565b60606000805461040d90613c5f565b80601f016020809104026020016040519081016040528092919081815260200182805461043990613c5f565b80156104865780601f1061045b57610100808354040283529160200191610486565b820191906000526020600020905b81548152906001019060200180831161046957829003601f168201915b5050505050905090565b600061049b826115b7565b6104da576040517f08c379a00000000000000000000000000000000000000000000000000000000081526004016104d1906138e2565b60405180910390fd5b6004600083815260200190815260200160002060009054906101000a900473ffffffffffffffffffffffffffffffffffffffff169050919050565b6000610520826106ad565b90508073ffffffffffffffffffffffffffffffffffffffff168373ffffffffffffffffffffffffffffffffffffffff161415610591576040517f08c379a000000000000000000000000000000000000000000000000000000000815260040161058890613942565b60405180910390fd5b8073ffffffffffffffffffffffffffffffffffffffff166105b0611623565b73ffffffffffffffffffffffffffffffffffffffff1614806105df57506105de816105d9611623565b611420565b5b61061e576040517f08c379a000000000000000000000000000000000000000000000000000000000815260040161061590613822565b60405180910390fd5b610628838361162b565b505050565b61063e610638611623565b826116e4565b61067d576040517f08c379a000000000000000000000000000000000000000000000000000000000815260040161067490613962565b60405180910390fd5b6106888383836117c2565b505050565b6106a883838360405180602001604052806000815250610c07565b505050565b6000806002600084815260200190815260200160002060009054906101000a900473ffffffffffffffffffffffffffffffffffffffff169050600073ffffffffffffffffffffffffffffffffffffffff168173ffffffffffffffffffffffffffffffffffffffff161415610756576040517f08c379a000000000000000000000000000000000000000000000000000000000815260040161074d90613862565b60405180910390fd5b80915050919050565b60008073ffffffffffffffffffffffffffffffffffffffff168273ffffffffffffffffffffffffffffffffffffffff1614156107d0576040517f08c379a00000000000000000000000000000000000000000000000000000000081526004016107c790613842565b60405180910390fd5b600360008373ffffffffffffffffffffffffffffffffffffffff1673ffffffffffffffffffffffffffffffffffffffff168152602001908152602001600020549050919050565b61081f612639565b600061082a83611a1e565b90506008805490508161083d9190613d08565b9050604051806040016040528060088381548110610884577f4e487b7100000000000000000000000000000000000000000000000000000000600052603260045260246000fd5b90600052602060002001805461089990613c5f565b80601f01602080910402602001604051908101604052809291908181526020018280546108c590613c5f565b80156109125780601f106108e757610100808354040283529160200191610912565b820191906000526020600020905b8154815290600101906020018083116108f557829003601f168201915b5050505050815260200160098381548110610956577f4e487b7100000000000000000000000000000000000000000000000000000000600052603260045260246000fd5b90600052602060002001805461096b90613c5f565b80601f016020809104026020016040519081016040528092919081815260200182805461099790613c5f565b80156109e45780601f106109b9576101008083540402835291602001916109e4565b820191906000526020600020905b8154815290600101906020018083116109c757829003601f168201915b5050505050815250915050919050565b606060018054610a0390613c5f565b80601f0160208091040260200160405190810160405280929190818152602001828054610a2f90613c5f565b8015610a7c5780601f10610a5157610100808354040283529160200191610a7c565b820191906000526020600020905b815481529060010190602001808311610a5f57829003601f168201915b5050505050905090565b610a8e611623565b73ffffffffffffffffffffffffffffffffffffffff168273ffffffffffffffffffffffffffffffffffffffff161415610afc576040517f08c379a0000000000000000000000000000000000000000000000000000000008152600401610af3906137e2565b60405180910390fd5b8060056000610b09611623565b73ffffffffffffffffffffffffffffffffffffffff1673ffffffffffffffffffffffffffffffffffffffff16815260200190815260200160002060008473ffffffffffffffffffffffffffffffffffffffff1673ffffffffffffffffffffffffffffffffffffffff16815260200190815260200160002060006101000a81548160ff0219169083151502179055508173ffffffffffffffffffffffffffffffffffffffff16610bb6611623565b73ffffffffffffffffffffffffffffffffffffffff167f17307eab39ab6107e8899845ad3d59bd9653f200f220920489ca2b5937696c3183604051610bfb91906136a0565b60405180910390a35050565b610c18610c12611623565b836116e4565b610c57576040517f08c379a0000000000000000000000000000000000000000000000000000000008152600401610c4e90613962565b60405180910390fd5b610c6384848484611a99565b50505050565b6060610c74826115b7565b610cb3576040517f08c379a0000000000000000000000000000000000000000000000000000000008152600401610caa906138c2565b60405180910390fd5b6000600660008481526020019081526020016000208054610cd390613c5f565b80601f0160208091040260200160405190810160405280929190818152602001828054610cff90613c5f565b8015610d4c5780601f10610d2157610100808354040283529160200191610d4c565b820191906000526020600020905b815481529060010190602001808311610d2f57829003601f168201915b505050505090506000610d5d611af5565b9050600081511415610d73578192505050610db6565b600082511115610da8578082604051602001610d9092919061343c565b60405160208183030381529060405292505050610db6565b610db184611b0c565b925050505b919050565b6000610dc76007611bb3565b90506000610dd482610817565b90506000610de183611bc1565b9050610e606040518060400160405280600e81526020017f2d2d3e2064656772656531203d2000000000000000000000000000000000000081525082600060038110610e56577f4e487b7100000000000000000000000000000000000000000000000000000000600052603260045260246000fd5b6020020151611c4e565b610edd6040518060400160405280600e81526020017f2d2d3e2064656772656532203d2000000000000000000000000000000000000081525082600160038110610ed3577f4e487b7100000000000000000000000000000000000000000000000000000000600052603260045260246000fd5b6020020151611c4e565b610f5a6040518060400160405280600e81526020017f2d2d3e2064656772656533203d2000000000000000000000000000000000000081525082600260038110610f50577f4e487b7100000000000000000000000000000000000000000000000000000000600052603260045260246000fd5b6020020151611c4e565b600082600060028110610f96577f4e487b7100000000000000000000000000000000000000000000000000000000600052603260045260246000fd5b602002015183600160028110610fd5577f4e487b7100000000000000000000000000000000000000000000000000000000600052603260045260246000fd5b6020020151604051602001610feb929190613460565b604051602081830303815290604052905061103b6040518060400160405280601781526020017f2d2d3e206e616d654c6f76654c616e6775616765203d2000000000000000000081525082611c4e565b6000600a83600060038110611079577f4e487b7100000000000000000000000000000000000000000000000000000000600052603260045260246000fd5b6020020151600b856001600381106110ba577f4e487b7100000000000000000000000000000000000000000000000000000000600052603260045260246000fd5b6020020151600c876001600381106110fb577f4e487b7100000000000000000000000000000000000000000000000000000000600052603260045260246000fd5b60200201516040516020016111159695949392919061348f565b60405160208183030381529060405290506000600d84600260038110611164577f4e487b7100000000000000000000000000000000000000000000000000000000600052603260045260246000fd5b6020020151600e876000600281106111a5577f4e487b7100000000000000000000000000000000000000000000000000000000600052603260045260246000fd5b6020020151600f896001600281106111e6577f4e487b7100000000000000000000000000000000000000000000000000000000600052603260045260246000fd5b6020020151604051602001611200969594939291906134e7565b60405160208183030381529060405290506000828260405160200161122692919061343c565b60405160208183030381529060405290506112756040518060400160405280601581526020017f0a2d2d2d2d2d2d2d2d2d2d2d2d2d2d2d2d2d2d2d2d00000000000000000000008152506114b4565b61127e816114b4565b6112bc6040518060400160405280601581526020017f2d2d2d2d2d2d2d2d2d2d2d2d2d2d2d2d2d2d2d2d0a00000000000000000000008152506114b4565b60006112f0856112cb84611cea565b6040516020016112dc92919061354a565b604051602081830303815290604052611cea565b9050600081604051602001611305919061358f565b60405160208183030381529060405290506113546040518060400160405280601581526020017f0a2d2d2d2d2d2d2d2d2d2d2d2d2d2d2d2d2d2d2d2d00000000000000000000008152506114b4565b61135d816114b4565b61139b6040518060400160405280601581526020017f2d2d2d2d2d2d2d2d2d2d2d2d2d2d2d2d2d2d2d2d0a00000000000000000000008152506114b4565b6113a5338a611ea8565b6113af8982611ec6565b6113b96007611f3a565b6113dc604051806060016040528060258152602001613e70602591398a33611f50565b7febb98688741ffa4c7589bf325de30cf7becb63de567842e1ccdb6cb949fdc82c338a60405161140d929190613655565b60405180910390a1505050505050505050565b6000600560008473ffffffffffffffffffffffffffffffffffffffff1673ffffffffffffffffffffffffffffffffffffffff16815260200190815260200160002060008373ffffffffffffffffffffffffffffffffffffffff1673ffffffffffffffffffffffffffffffffffffffff16815260200190815260200160002060009054906101000a900460ff16905092915050565b61154a816040516024016114c891906136bb565b6040516020818303038152906040527f41304fac000000000000000000000000000000000000000000000000000000007bffffffffffffffffffffffffffffffffffffffffffffffffffffffff19166020820180517bffffffffffffffffffffffffffffffffffffffffffffffffffffffff8381831617835250505050611fef565b50565b60007f01ffc9a7000000000000000000000000000000000000000000000000000000007bffffffffffffffffffffffffffffffffffffffffffffffffffffffff1916827bffffffffffffffffffffffffffffffffffffffffffffffffffffffff1916149050919050565b60008073ffffffffffffffffffffffffffffffffffffffff166002600084815260200190815260200160002060009054906101000a900473ffffffffffffffffffffffffffffffffffffffff1673ffffffffffffffffffffffffffffffffffffffff1614159050919050565b600033905090565b816004600083815260200190815260200160002060006101000a81548173ffffffffffffffffffffffffffffffffffffffff021916908373ffffffffffffffffffffffffffffffffffffffff160217905550808273ffffffffffffffffffffffffffffffffffffffff1661169e836106ad565b73ffffffffffffffffffffffffffffffffffffffff167f8c5be1e5ebec7d5bd14f71427d1e84f3dd0314c0f7b2291e5b200ac8c7c3b92560405160405180910390a45050565b60006116ef826115b7565b61172e576040517f08c379a000000000000000000000000000000000000000000000000000000000815260040161172590613802565b60405180910390fd5b6000611739836106ad565b90508073ffffffffffffffffffffffffffffffffffffffff168473ffffffffffffffffffffffffffffffffffffffff1614806117a857508373ffffffffffffffffffffffffffffffffffffffff1661179084610490565b73ffffffffffffffffffffffffffffffffffffffff16145b806117b957506117b88185611420565b5b91505092915050565b8273ffffffffffffffffffffffffffffffffffffffff166117e2826106ad565b73ffffffffffffffffffffffffffffffffffffffff1614611838576040517f08c379a000000000000000000000000000000000000000000000000000000000815260040161182f90613902565b60405180910390fd5b600073ffffffffffffffffffffffffffffffffffffffff168273ffffffffffffffffffffffffffffffffffffffff1614156118a8576040517f08c379a000000000000000000000000000000000000000000000000000000000815260040161189f906137c2565b60405180910390fd5b6118b3838383612018565b6118be60008261162b565b6001600360008573ffffffffffffffffffffffffffffffffffffffff1673ffffffffffffffffffffffffffffffffffffffff168152602001908152602001600020600082825461190e9190613b75565b925050819055506001600360008473ffffffffffffffffffffffffffffffffffffffff1673ffffffffffffffffffffffffffffffffffffffff16815260200190815260200160002060008282546119659190613a94565b92505081905550816002600083815260200190815260200160002060006101000a81548173ffffffffffffffffffffffffffffffffffffffff021916908373ffffffffffffffffffffffffffffffffffffffff160217905550808273ffffffffffffffffffffffffffffffffffffffff168473ffffffffffffffffffffffffffffffffffffffff167fddf252ad1be2c89b69c2b068fc378daa952ba7f163c4a11628f55a4df523b3ef60405160405180910390a4505050565b600080429050611a636040518060400160405280601081526020017f2d2d3e2074696d657374616d70203d20000000000000000000000000000000008152508261201d565b803384604051602001611a78939291906135b1565b6040516020818303038152906040528051906020012060001c915050919050565b611aa48484846117c2565b611ab0848484846120b9565b611aef576040517f08c379a0000000000000000000000000000000000000000000000000000000008152600401611ae690613782565b60405180910390fd5b50505050565b606060405180602001604052806000815250905090565b6060611b17826115b7565b611b56576040517f08c379a0000000000000000000000000000000000000000000000000000000008152600401611b4d90613922565b60405180910390fd5b6000611b60611af5565b90506000815111611b805760405180602001604052806000815250611bab565b80611b8a84612250565b604051602001611b9b92919061343c565b6040516020818303038152906040525b915050919050565b600081600001549050919050565b611bc9612660565b6000611bd483611a1e565b9050600061016882611be69190613d08565b90506000611bf382612250565b90506000611c0c607884611c079190613a94565b612250565b90506000611c2560f085611c209190613a94565b612250565b905060405180606001604052808481526020018381526020018281525095505050505050919050565b611ce68282604051602401611c649291906136dd565b6040516020818303038152906040527f4b5c4277000000000000000000000000000000000000000000000000000000007bffffffffffffffffffffffffffffffffffffffffffffffffffffffff19166020820180517bffffffffffffffffffffffffffffffffffffffffffffffffffffffff8381831617835250505050611fef565b5050565b60606000825190506000811415611d135760405180602001604052806000815250915050611ea3565b60006003600283611d249190613a94565b611d2e9190613aea565b6004611d3a9190613b1b565b90506000602082611d4b9190613a94565b67ffffffffffffffff811115611d8a577f4e487b7100000000000000000000000000000000000000000000000000000000600052604160045260246000fd5b6040519080825280601f01601f191660200182016040528015611dbc5781602001600182028036833780820191505090505b5090506000604051806060016040528060408152602001613e95604091399050600181016020830160005b86811015611e605760038101905062ffffff818a015116603f8160121c168401518060081b905060ff603f83600c1c1686015116810190508060081b905060ff603f8360061c1686015116810190508060081b905060ff603f831686015116810190508060e01b90508084526004840193505050611de7565b506003860660018114611e7a5760028114611e8a57611e95565b613d3d60f01b6002830352611e95565b603d60f81b60018303525b508484525050819450505050505b919050565b611ec28282604051806020016040528060008152506123fd565b5050565b611ecf826115b7565b611f0e576040517f08c379a0000000000000000000000000000000000000000000000000000000008152600401611f0590613882565b60405180910390fd5b80600660008481526020019081526020016000209080519060200190611f35929190612687565b505050565b6001816000016000828254019250508190555050565b611fea838383604051602401611f6893929190613744565b6040516020818303038152906040527fe3849f79000000000000000000000000000000000000000000000000000000007bffffffffffffffffffffffffffffffffffffffffffffffffffffffff19166020820180517bffffffffffffffffffffffffffffffffffffffffffffffffffffffff8381831617835250505050611fef565b505050565b60008151905060006a636f6e736f6c652e6c6f679050602083016000808483855afa5050505050565b505050565b6120b58282604051602401612033929190613714565b6040516020818303038152906040527f9710a9d0000000000000000000000000000000000000000000000000000000007bffffffffffffffffffffffffffffffffffffffffffffffffffffffff19166020820180517bffffffffffffffffffffffffffffffffffffffffffffffffffffffff8381831617835250505050611fef565b5050565b60006120da8473ffffffffffffffffffffffffffffffffffffffff16612458565b15612243578373ffffffffffffffffffffffffffffffffffffffff1663150b7a02612103611623565b8786866040518563ffffffff1660e01b81526004016121259493929190613609565b602060405180830381600087803b15801561213f57600080fd5b505af192505050801561217057506040513d601f19601f8201168201806040525081019061216d91906129cb565b60015b6121f3573d80600081146121a0576040519150601f19603f3d011682016040523d82523d6000602084013e6121a5565b606091505b506000815114156121eb576040517f08c379a00000000000000000000000000000000000000000000000000000000081526004016121e290613782565b60405180910390fd5b805181602001fd5b63150b7a0260e01b7bffffffffffffffffffffffffffffffffffffffffffffffffffffffff1916817bffffffffffffffffffffffffffffffffffffffffffffffffffffffff191614915050612248565b600190505b949350505050565b60606000821415612298576040518060400160405280600181526020017f300000000000000000000000000000000000000000000000000000000000000081525090506123f8565b600082905060005b600082146122ca5780806122b390613c91565b915050600a826122c39190613aea565b91506122a0565b60008167ffffffffffffffff81111561230c577f4e487b7100000000000000000000000000000000000000000000000000000000600052604160045260246000fd5b6040519080825280601f01601f19166020018201604052801561233e5781602001600182028036833780820191505090505b5090505b600085146123f1576001826123579190613b75565b9150600a856123669190613d08565b60306123729190613a94565b60f81b8183815181106123ae577f4e487b7100000000000000000000000000000000000000000000000000000000600052603260045260246000fd5b60200101907effffffffffffffffffffffffffffffffffffffffffffffffffffffffffffff1916908160001a905350600a856123ea9190613aea565b9450612342565b8093505050505b919050565b612407838361246b565b61241460008484846120b9565b612453576040517f08c379a000000000000000000000000000000000000000000000000000000000815260040161244a90613782565b60405180910390fd5b505050565b600080823b905060008111915050919050565b600073ffffffffffffffffffffffffffffffffffffffff168273ffffffffffffffffffffffffffffffffffffffff1614156124db576040517f08c379a00000000000000000000000000000000000000000000000000000000081526004016124d2906138a2565b60405180910390fd5b6124e4816115b7565b15612524576040517f08c379a000000000000000000000000000000000000000000000000000000000815260040161251b906137a2565b60405180910390fd5b61253060008383612018565b6001600360008473ffffffffffffffffffffffffffffffffffffffff1673ffffffffffffffffffffffffffffffffffffffff16815260200190815260200160002060008282546125809190613a94565b92505081905550816002600083815260200190815260200160002060006101000a81548173ffffffffffffffffffffffffffffffffffffffff021916908373ffffffffffffffffffffffffffffffffffffffff160217905550808273ffffffffffffffffffffffffffffffffffffffff16600073ffffffffffffffffffffffffffffffffffffffff167fddf252ad1be2c89b69c2b068fc378daa952ba7f163c4a11628f55a4df523b3ef60405160405180910390a45050565b60405180604001604052806002905b60608152602001906001900390816126485790505090565b60405180606001604052806003905b606081526020019060019003908161266f5790505090565b82805461269390613c5f565b90600052602060002090601f0160209004810192826126b557600085556126fc565b82601f106126ce57805160ff19168380011785556126fc565b828001600101855582156126fc579182015b828111156126fb5782518255916020019190600101906126e0565b5b509050612709919061270d565b5090565b5b8082111561272657600081600090555060010161270e565b5090565b600061273d612738846139ce565b61399d565b90508281526020810184848401111561275557600080fd5b612760848285613c1d565b509392505050565b60008135905061277781613e13565b92915050565b60008135905061278c81613e2a565b92915050565b6000813590506127a181613e41565b92915050565b6000815190506127b681613e41565b92915050565b600082601f8301126127cd57600080fd5b81356127dd84826020860161272a565b91505092915050565b6000813590506127f581613e58565b92915050565b60006020828403121561280d57600080fd5b600061281b84828501612768565b91505092915050565b6000806040838503121561283757600080fd5b600061284585828601612768565b925050602061285685828601612768565b9150509250929050565b60008060006060848603121561287557600080fd5b600061288386828701612768565b935050602061289486828701612768565b92505060406128a5868287016127e6565b9150509250925092565b600080600080608085870312156128c557600080fd5b60006128d387828801612768565b94505060206128e487828801612768565b93505060406128f5878288016127e6565b925050606085013567ffffffffffffffff81111561291257600080fd5b61291e878288016127bc565b91505092959194509250565b6000806040838503121561293d57600080fd5b600061294b85828601612768565b925050602061295c8582860161277d565b9150509250929050565b6000806040838503121561297957600080fd5b600061298785828601612768565b9250506020612998858286016127e6565b9150509250929050565b6000602082840312156129b457600080fd5b60006129c284828501612792565b91505092915050565b6000602082840312156129dd57600080fd5b60006129eb848285016127a7565b91505092915050565b600060208284031215612a0657600080fd5b6000612a14848285016127e6565b91505092915050565b6000612a298383612b14565b905092915050565b612a3a81613ba9565b82525050565b612a51612a4c82613ba9565b613cda565b82525050565b6000612a6282613a1d565b612a6c8185613a4b565b935083602082028501612a7e856139fe565b8060005b85811015612aba5784840389528151612a9b8582612a1d565b9450612aa683613a3e565b925060208a01995050600181019050612a82565b50829750879550505050505092915050565b612ad581613bbb565b82525050565b6000612ae682613a28565b612af08185613a56565b9350612b00818560208601613c2c565b612b0981613df5565b840191505092915050565b6000612b1f82613a33565b612b298185613a67565b9350612b39818560208601613c2c565b612b4281613df5565b840191505092915050565b6000612b5882613a33565b612b628185613a78565b9350612b72818560208601613c2c565b612b7b81613df5565b840191505092915050565b6000612b9182613a33565b612b9b8185613a89565b9350612bab818560208601613c2c565b80840191505092915050565b60008154612bc481613c5f565b612bce8186613a89565b94506001821660008114612be95760018114612bfa57612c2d565b60ff19831686528186019350612c2d565b612c0385613a08565b60005b83811015612c2557815481890152600182019150602081019050612c06565b838801955050505b50505092915050565b6000612c43603283613a78565b91507f4552433732313a207472616e7366657220746f206e6f6e20455243373231526560008301527f63656976657220696d706c656d656e74657200000000000000000000000000006020830152604082019050919050565b6000612ca9601c83613a78565b91507f4552433732313a20746f6b656e20616c7265616479206d696e746564000000006000830152602082019050919050565b6000612ce9602483613a78565b91507f4552433732313a207472616e7366657220746f20746865207a65726f2061646460008301527f72657373000000000000000000000000000000000000000000000000000000006020830152604082019050919050565b6000612d4f601983613a78565b91507f4552433732313a20617070726f766520746f2063616c6c6572000000000000006000830152602082019050919050565b6000612d8f602c83613a78565b91507f4552433732313a206f70657261746f7220717565727920666f72206e6f6e657860008301527f697374656e7420746f6b656e00000000000000000000000000000000000000006020830152604082019050919050565b6000612df5603883613a78565b91507f4552433732313a20617070726f76652063616c6c6572206973206e6f74206f7760008301527f6e6572206e6f7220617070726f76656420666f7220616c6c00000000000000006020830152604082019050919050565b6000612e5b602a83613a78565b91507f4552433732313a2062616c616e636520717565727920666f7220746865207a6560008301527f726f2061646472657373000000000000000000000000000000000000000000006020830152604082019050919050565b6000612ec1602983613a78565b91507f4552433732313a206f776e657220717565727920666f72206e6f6e657869737460008301527f656e7420746f6b656e00000000000000000000000000000000000000000000006020830152604082019050919050565b6000612f27602e83613a78565b91507f45524337323155524953746f726167653a2055524920736574206f66206e6f6e60008301527f6578697374656e7420746f6b656e0000000000000000000000000000000000006020830152604082019050919050565b6000612f8d600283613a89565b91507f227d0000000000000000000000000000000000000000000000000000000000006000830152600282019050919050565b6000612fcd602083613a78565b91507f4552433732313a206d696e7420746f20746865207a65726f20616464726573736000830152602082019050919050565b600061300d603183613a78565b91507f45524337323155524953746f726167653a2055524920717565727920666f722060008301527f6e6f6e6578697374656e7420746f6b656e0000000000000000000000000000006020830152604082019050919050565b6000613073602c83613a78565b91507f4552433732313a20617070726f76656420717565727920666f72206e6f6e657860008301527f697374656e7420746f6b656e00000000000000000000000000000000000000006020830152604082019050919050565b60006130d9600383613a89565b91507f4e465400000000000000000000000000000000000000000000000000000000006000830152600382019050919050565b6000613119602983613a78565b91507f4552433732313a207472616e73666572206f6620746f6b656e2074686174206960008301527f73206e6f74206f776e00000000000000000000000000000000000000000000006020830152604082019050919050565b600061317f602f83613a78565b91507f4552433732314d657461646174613a2055524920717565727920666f72206e6f60008301527f6e6578697374656e7420746f6b656e00000000000000000000000000000000006020830152604082019050919050565b60006131e5600a83613a89565b91507f7b226e616d65223a2022000000000000000000000000000000000000000000006000830152600a82019050919050565b6000613225602183613a78565b91507f4552433732313a20617070726f76616c20746f2063757272656e74206f776e6560008301527f72000000000000000000000000000000000000000000000000000000000000006020830152604082019050919050565b600061328b601d83613a89565b91507f646174613a6170706c69636174696f6e2f6a736f6e3b6261736536342c0000006000830152601d82019050919050565b60006132cb600e83613a89565b91507f293c2f746578743e3c2f7376673e0000000000000000000000000000000000006000830152600e82019050919050565b600061330b603183613a78565b91507f4552433732313a207472616e736665722063616c6c6572206973206e6f74206f60008301527f776e6572206e6f7220617070726f7665640000000000000000000000000000006020830152604082019050919050565b6000613371606783613a89565b91507f222c20226465736372697074696f6e223a20224c6f766520696e206d616e792060008301527f6c616e6775616765732066726f6d2061726f756e642074686520776f726c642e60208301527f222c2022696d616765223a2022646174613a696d6167652f7376672b786d6c3b60408301527f6261736536342c000000000000000000000000000000000000000000000000006060830152606782019050919050565b61341f81613c13565b82525050565b61343661343182613c13565b613cfe565b82525050565b60006134488285612b86565b91506134548284612b86565b91508190509392505050565b600061346c8285612b86565b91506134788284612b86565b9150613483826130cc565b91508190509392505050565b600061349b8289612bb7565b91506134a78288612b86565b91506134b38287612bb7565b91506134bf8286612b86565b91506134cb8285612bb7565b91506134d78284612b86565b9150819050979650505050505050565b60006134f38289612bb7565b91506134ff8288612b86565b915061350b8287612bb7565b91506135178286612b86565b91506135238285612bb7565b915061352f8284612b86565b915061353a826132be565b9150819050979650505050505050565b6000613555826131d8565b91506135618285612b86565b915061356c82613364565b91506135788284612b86565b915061358382612f80565b91508190509392505050565b600061359a8261327e565b91506135a68284612b86565b915081905092915050565b60006135bd8286613425565b6020820191506135cd8285612a40565b6014820191506135dd8284613425565b602082019150819050949350505050565b60006020820190506136036000830184612a31565b92915050565b600060808201905061361e6000830187612a31565b61362b6020830186612a31565b6136386040830185613416565b818103606083015261364a8184612adb565b905095945050505050565b600060408201905061366a6000830185612a31565b6136776020830184613416565b9392505050565b600060208201905081810360008301526136988184612a57565b905092915050565b60006020820190506136b56000830184612acc565b92915050565b600060208201905081810360008301526136d58184612b4d565b905092915050565b600060408201905081810360008301526136f78185612b4d565b9050818103602083015261370b8184612b4d565b90509392505050565b6000604082019050818103600083015261372e8185612b4d565b905061373d6020830184613416565b9392505050565b6000606082019050818103600083015261375e8186612b4d565b905061376d6020830185613416565b61377a6040830184612a31565b949350505050565b6000602082019050818103600083015261379b81612c36565b9050919050565b600060208201905081810360008301526137bb81612c9c565b9050919050565b600060208201905081810360008301526137db81612cdc565b9050919050565b600060208201905081810360008301526137fb81612d42565b9050919050565b6000602082019050818103600083015261381b81612d82565b9050919050565b6000602082019050818103600083015261383b81612de8565b9050919050565b6000602082019050818103600083015261385b81612e4e565b9050919050565b6000602082019050818103600083015261387b81612eb4565b9050919050565b6000602082019050818103600083015261389b81612f1a565b9050919050565b600060208201905081810360008301526138bb81612fc0565b9050919050565b600060208201905081810360008301526138db81613000565b9050919050565b600060208201905081810360008301526138fb81613066565b9050919050565b6000602082019050818103600083015261391b8161310c565b9050919050565b6000602082019050818103600083015261393b81613172565b9050919050565b6000602082019050818103600083015261395b81613218565b9050919050565b6000602082019050818103600083015261397b816132fe565b9050919050565b60006020820190506139976000830184613416565b92915050565b6000604051905081810181811067ffffffffffffffff821117156139c4576139c3613dc6565b5b8060405250919050565b600067ffffffffffffffff8211156139e9576139e8613dc6565b5b601f19601f8301169050602081019050919050565b6000819050919050565b60008190508160005260206000209050919050565b600060029050919050565b600081519050919050565b600081519050919050565b6000602082019050919050565b600081905092915050565b600082825260208201905092915050565b600082825260208201905092915050565b600082825260208201905092915050565b600081905092915050565b6000613a9f82613c13565b9150613aaa83613c13565b9250827fffffffffffffffffffffffffffffffffffffffffffffffffffffffffffffffff03821115613adf57613ade613d39565b5b828201905092915050565b6000613af582613c13565b9150613b0083613c13565b925082613b1057613b0f613d68565b5b828204905092915050565b6000613b2682613c13565b9150613b3183613c13565b9250817fffffffffffffffffffffffffffffffffffffffffffffffffffffffffffffffff0483118215151615613b6a57613b69613d39565b5b828202905092915050565b6000613b8082613c13565b9150613b8b83613c13565b925082821015613b9e57613b9d613d39565b5b828203905092915050565b6000613bb482613bf3565b9050919050565b60008115159050919050565b60007fffffffff0000000000000000000000000000000000000000000000000000000082169050919050565b600073ffffffffffffffffffffffffffffffffffffffff82169050919050565b6000819050919050565b82818337600083830152505050565b60005b83811015613c4a578082015181840152602081019050613c2f565b83811115613c59576000848401525b50505050565b60006002820490506001821680613c7757607f821691505b60208210811415613c8b57613c8a613d97565b5b50919050565b6000613c9c82613c13565b91507fffffffffffffffffffffffffffffffffffffffffffffffffffffffffffffffff821415613ccf57613cce613d39565b5b600182019050919050565b6000613ce582613cec565b9050919050565b6000613cf782613e06565b9050919050565b6000819050919050565b6000613d1382613c13565b9150613d1e83613c13565b925082613d2e57613d2d613d68565b5b828206905092915050565b7f4e487b7100000000000000000000000000000000000000000000000000000000600052601160045260246000fd5b7f4e487b7100000000000000000000000000000000000000000000000000000000600052601260045260246000fd5b7f4e487b7100000000000000000000000000000000000000000000000000000000600052602260045260246000fd5b7f4e487b7100000000000000000000000000000000000000000000000000000000600052604160045260246000fd5b6000601f19601f8301169050919050565b60008160601b9050919050565b613e1c81613ba9565b8114613e2757600080fd5b50565b613e3381613bbb565b8114613e3e57600080fd5b50565b613e4a81613bc7565b8114613e5557600080fd5b50565b613e6181613c13565b8114613e6c57600080fd5b5056fe416e204e465420772f20494420257320686173206265656e206d696e74656420746f2025734142434445464748494a4b4c4d4e4f505152535455565758595a6162636465666768696a6b6c6d6e6f707172737475767778797a303132333435363738392b2fa264697066735822122085cf5738017c98864056da21c6d555a4313f5fe9ea74dbfbd6d04a499df0407164736f6c634300080000333c2f746578743e3c7465787420783d273530252720793d27363125272069643d2774657874322720646f6d696e616e742d626173656c696e653d276d6964646c652720746578742d616e63686f723d276d6964646c65273e282c313030252c373525293b73746f702d6f7061636974793a3127202f3e3c73746f70206f66667365743d2736302527207374796c653d2773746f702d636f6c6f723a68736c283c73766720786d6c6e733d27687474703a2f2f7777772e77332e6f72672f323030302f73766727206865696768743d27333030272077696474683d27333030273e3c646566733e3c6c696e6561724772616469656e742069643d276772616431272078313d273025272079313d273025272078323d273025272079323d2731303025273e3c73746f70206f66667365743d27302527207374796c653d2773746f702d636f6c6f723a68736c282c313030252c373525293b73746f702d6f7061636974793a3127202f3e3c73746f70206f66667365743d2734302527207374796c653d2773746f702d636f6c6f723a68736c282c313030252c373525293b73746f702d6f7061636974793a3127202f3e3c73746f70206f66667365743d273130302527207374796c653d2773746f702d636f6c6f723a68736c282c313030252c373525293b73746f702d6f7061636974793a3127202f3e3c2f6c696e6561724772616469656e743e3c2f646566733e3c7374796c653e237465787431207b2066696c6c3a20233030303030303b20666f6e742d66616d696c793a2073657269663b20666f6e742d73697a653a20353070783b207d20237465787432207b2066696c6c3a20233030303030303b20666f6e742d66616d696c793a2073616e732d73657269663b20666f6e742d73697a653a20323070783b207d3c2f7374796c653e3c636972636c652063783d27353025272063793d273530252720723d27353025272066696c6c3d2775726c282367726164312927207374726f6b653d27626c61636b27207374726f6b652d77696474683d273127202f3e3c7465787420783d273530252720793d27343825272069643d2774657874312720646f6d696e616e742d626173656c696e653d276d6964646c652720746578742d616e63686f723d276d6964646c65273e2d2d3e204e4654732061726520626f646163696f757321204675636b696e672065682c2062756262612120454e44",
	"linkReferences": {},
	"deployedLinkReferences": {}
}